:1004F800081C0A0A0A0A0A0A0A0A08080000000070
:0E05080000000000082A0000000000000000B3
:10068900E533B4011AE4F5331204858F26E52565AF
:1006990026FF5526F524E526F45FF528852625222B
:10071500E53324FC700D12060B7E001202848F3225
:03072500E4F533C5
:0107280022AE
:09073A00E533B40203E4F53322B7
:010753002283
:09074300E533B40303E4F53322AD
:10000E00538E7F5389F0758A18758CFCC28DD28CF5
:05001E00D2A9D2AF22BF
:03000B0002034AA3
:10034A00C0E0C0F0C083C082C0D075D000C000C079
:10035A0001C002C003C004C005C006C007051BE5F2
:10036A001B7002051AFFAE1ABE0109BFF406751A00
:10037A0000751B00AE1AAF1B7C007D091201EBED64
:10038A004C6003753301E51A701BE51B249C600D54
:10039A00249C600E2496700D753302800875330311
:1003AA0080037533040527E527B40803752700740D
:1003BA001C2527F8E6FD7C0074082527F8E6FB7A59
:1003CA0000AF271205D1742A2527F8E6FD7C00AF75
:1003DA0027120596D007D006D005D004D003D00244
:0F03EA00D001D000D0D0D082D083D0F0D0E0327C
:030023000206A929
:1006A900C0E0C0D075D000C00030980B7410252967
:0E06B900F8A6990529C298D000D0D0D0E03222
:1006E4001206C712000E1206FE1206891207151210
:0A06F400073A12075312074380EF84
:100516000178000179FF017A00017BFF017C00016F
:020526007DFF57
:10059600ED4C600F7401A807088002C333D8FC42F3
:1005A60078800E7401A807088002C333D8FCF45281
:1005B60078E57865796013E578F4F580E5A0541F51
:0A05C6004480F5A053A01F8578794A
:0105D0002208
:10064300EF6005437A408003537ABFE57A657B60A8
:1006530011857A80E5A0541F44A0F5A053A01F85FF
:020663007A7BA0
:010665002272
:10066600EF6005437C108003537CEFE57C657D607D
:1006760011857C80E5A0541F44A0F5A053A01F85DA
:020686007C7D79
:01068800224F
:100528000C64C0F9A4B0999282F88090FF88087092
:080538000102040810204080BC
:1005D1007580FFE5A0541F44E0F5A053A01F74707F
:1005E1002FF8E6F580E5A0541F44C0F5A053A01FE5
:1005F10074642DF8E6F580EB4A600353807FE5A033
:0A060100541F44E0F5A053A01F228F
:10048500E4FFC2C4D2C2D2B5D2B420B3027F0420E5
:10049500B2027F0520B1027F0620B0027F07D2C4D9
:1004A500C2C2D2B5D2B420B3027F0820B2027F09FE
:1004B50020B1027F0A20B0027F0BD2C4D2C2C2B5DE
:1004C500D2B420B3027F0C20B2027F0D20B1027F8F
:1004D5000E20B0027F0FD2C4D2C2D2B5C2B420B3AF
:1004E500027F1020B2027F1120B1027F1220B002DC
:0204F5007F1373
:0104F70022E2
:1006C7007580FFE5A0541F4480F5A053A01FE4F5F3
:0D06D70080E5A0541F44A0F5A053A01F22F1
:1006FE00759850438E01438E0475D7C775D6FE4349
:07070E008E10D2ACD2AF2225
:080003008F993099FDC299228A
:08054000024A00000234000031
:10054900AD35ED25E02436F8E6FA08E6FBC3E54BC0
:100559009BF54BE54A9AF54AED25E02436F8A606BF
:1005690008A607EF254BF54BEE354AF54AE5352444
:1005790001FFE43534FE7C007D0A1202408C348D83
:0D05890035AE4AAF4B7C007D0A12024022C5
:040284008E4C8F4DC0
:10028800E4FFFEEF25E02436F8E6FC08E6FDEF255E
:10029800E0244EF8A60408A6050FBF00010EEF647F
:1002A8000A4E70DFE4FEFFE4FDFCC374099FFBE423
:1002B8009EFAC3ED9BEA6480F8EC6480985053ED95
:1002C80025E02450F8E6FA08E6FBED25E0244EF890
:1002D800E6F58308E6F582D39BEA6480F8E5836453
:1002E80080984027858362858263ED25E02450F855
:1002F800E6FA08E6FBED25E0244EF8A60208A60378
:10030800ED25E02450F8A66208A6630DBD00010C97
:1003180080980FBF00010EEF64094E708AE53525FD
:10032800E02436F8A64C08A64DE5352401FFE4354F
:1003380034FE7C007D0A1202408C348D35AE58AFF5
:01034800595B
:010349002291
:06074C0000007F26DFFE25
:010752002284
:10072900E4FED29012074CC29012074C0EBE08F29A
:01073900229D
:10060B00E4F5D9F5E9F5F9120729D2DE309103307B
:10061B00DFFAC2DE20DF1CAFF9EFFEADE9EDFFAC78
:10062B0006E41201317B967A43798B783C120026D3
:07063B0002016AC2DF7F002B
:010642002295
:10002600EC4D6011E8497017ED33EC3304600DE4D4
:10003600FCFFFEFD22E933E8330470F80201D61214
:1000460001A158046009E4CC248150062850090215
:1000560001E02840030201DDC0E0EB4A7044B980AC
:1000660006D0E0FB0201CCEF4E701CBD8008EBFF12
:10007600EAFEE9FD80EBE98DF0A4FEE5F002010F52
:10008600E9CDF9EAFEEBFFEF89F0A4FCE5F0CE89B5
:10009600F0A42EFFE435F0CD89F0A42DFEE435F072
:1000A6008067EF4E7005BD80D780C3EF8BF0A4ACA0
:1000B600F0EE8BF0A42CFCE435F0F8EF8AF0A42CDB
:1000C600E5F038FCE433CB8DF0A42CFCE5F03BF8EE
:1000D600EE8AF0A42CFCE5F038F8E433CF89F0A4DE
:1000E6002CFCE5F038CF3400CE89F0A42FFFE5F0E4
:1000F6003EFEE433C98DF0A42EFEE5F039CD8AF03C
:10010600A42FFFE5F03EFEE43DFD33D0E0FB5007B3
:100116000BBB000F0201E0EC2CFCEF33FFEE33FECD
:06012600ED33FD0201B8FB
:10012C0075F020800E75F010800575F0087D007E4E
:10013C00007F003392D530D503120276EC33401099
:10014C00EF33FFEE33FEED33FDEC33FCD5F0ED2257
:0E015C00E5F0247EA2D513CC92E7CDCEFF2293
:10016A00EDD2E7CD33EC3392D524814006E4FFFE8D
:10017A00FDFC22FCE4CFCECDCC24E0501174FF80EC
:10018A00EDC3CC13CCCD13CDCE13CECF13CF047089
:07019A00F030D5DE02027611
:1001A100E9D2E7C933E833F892D5EDD2E7CD33ECA4
:0701B10033FC5002B2D5221D
:1001B800EC30E7100FBF000C0EBE00080DBD0004A8
:1001C8000BEB6014A2D5EB13FCED92E7FD2274FF54
:1001D800FCFDFEFF22E480F8A2D574FF13FC7D80AD
:0301E800E480EFC1
:030000000203F9FF
:0C03F900787FE4F6D8FD75817D02044099
:1001EB00BC000BBE0029EF8DF084FFADF022E4CCF8
:1001FB00F875F008EF2FFFEE33FEEC33FCEE9DECC1
:10020B00984005FCEE9DFE0FD5F0E9E4CEFD22ED06
:10021B00F8F5F0EE8420D21CFEADF075F008EF2F50
:10022B00FFED33FD4007985006D5F0F222C398FD41
:05023B000FD5F0EA22DE
:10024000C2D5EC30E709B2D5E4C39DFDE49CFCEED9
:1002500030E715B2D5E4C39FFFE49EFE1201EBC365
:10026000E49DFDE49CFC80031201EB30D507C3E460
:060270009FFFE49EFE2248
:0E027600C3E49FFFE49EFEE49DFDE49CFC2299
:100405000206E4E493A3F8E493A34003F68001F223
:1004150008DFF48029E493A3F85407240CC8C333F8
:10042500C4540F4420C8834004F456800146F6DFC7
:10043500E4800B01020408102040809004F8E47E5B
:10044500019360BCA3FF543F30E509541FFEE493BC
:10045500A360010ECF54C025E060A840B8E493A383
:10046500FAE493A3F8E493A3C8C582C8CAC583CAAE
:10047500F0A3C8C582C8CAC583CADFE9DEE780BE66
:0105480000B2
:00000001FF
